{
  "contractName": "A",
  "abi": [
    {
      "constant": false,
      "inputs": [
        {
          "name": "_b",
          "type": "B"
        },
        {
          "name": "_value",
          "type": "uint256"
        }
      ],
      "name": "a1",
      "outputs": [
        {
          "name": "",
          "type": "uint256"
        }
      ],
      "payable": false,
      "stateMutability": "nonpayable",
      "type": "function"
    }
  ],
  "bytecode": "0x61016f610030600b82828239805160001a6073146000811461002057610022565bfe5b5030600052607381538281f30073000000000000000000000000000000000000000030146080604052600436106100575763ffffffff7c01000000000000000000000000000000000000000000000000000000006000350416632fc0e827811461005c575b600080fd5b81801561006857600080fd5b5061008d73ffffffffffffffffffffffffffffffffffffffff6004351660243561009f565b60408051918252519081900360200190f35b60008273ffffffffffffffffffffffffffffffffffffffff1663188b85b4836040518263ffffffff167c010000000000000000000000000000000000000000000000000000000002815260040180828152602001915050602060405180830381600087803b15801561011057600080fd5b505af1158015610124573d6000803e3d6000fd5b505050506040513d602081101561013a57600080fd5b505193925050505600a165627a7a72305820de5f2cb38e5e25f5793571b128d8193c4fe2af9ca8da7e7d532c3d539d42e3a50029",
  "source": "pragma solidity ^0.4.24;\n\nimport \"./B.sol\";\n\nlibrary A {\n    function a1(B _b, uint256 _value) public returns (uint256) {\n        return _b.sum(_value);\t\n\t}\n}\n",
  "sourcePath": "/Users/knight/Documents/geth/smart-contracts/hello/contracts/library/A.sol",
  "compiler": {
    "name": "solc",
    "version": "0.4.24+commit.e67f0147.Emscripten.clang"
  },
  "schemaVersion": "2.0.1",
  "updatedAt": "2018-08-02T06:47:10.965Z"
}