{
  "contractName": "Bank",
  "abi": [
    {
      "inputs": [
        {
          "name": "amount",
          "type": "uint256"
        }
      ],
      "payable": false,
      "stateMutability": "nonpayable",
      "type": "constructor"
    },
    {
      "constant": false,
      "inputs": [
        {
          "name": "amount",
          "type": "uint256"
        }
      ],
      "name": "deposit",
      "outputs": [],
      "payable": false,
      "stateMutability": "nonpayable",
      "type": "function"
    },
    {
      "constant": false,
      "inputs": [
        {
          "name": "amount",
          "type": "uint256"
        }
      ],
      "name": "withdraw",
      "outputs": [],
      "payable": false,
      "stateMutability": "nonpayable",
      "type": "function"
    },
    {
      "constant": true,
      "inputs": [],
      "name": "balance",
      "outputs": [
        {
          "name": "",
          "type": "uint256"
        }
      ],
      "payable": false,
      "stateMutability": "view",
      "type": "function"
    },
    {
      "constant": true,
      "inputs": [
        {
          "name": "amount",
          "type": "uint256"
        }
      ],
      "name": "checkValue",
      "outputs": [
        {
          "name": "",
          "type": "bool"
        }
      ],
      "payable": false,
      "stateMutability": "view",
      "type": "function"
    },
    {
      "constant": true,
      "inputs": [],
      "name": "loan",
      "outputs": [
        {
          "name": "",
          "type": "bool"
        }
      ],
      "payable": false,
      "stateMutability": "view",
      "type": "function"
    }
  ],
  "bytecode": "0x608060405234801561001057600080fd5b506040516020806101a78339810160405251600055610173806100346000396000f30060806040526004361061006c5763ffffffff7c010000000000000000000000000000000000000000000000000000000060003504166318db62fb81146100715780632e1a7d4d1461009d578063b69ef8a8146100b7578063b6b55f25146100de578063d285b7b4146100f6575b600080fd5b34801561007d57600080fd5b5061008960043561010b565b604080519115158252519081900360200190f35b3480156100a957600080fd5b506100b5600435610113565b005b3480156100c357600080fd5b506100cc61012e565b60408051918252519081900360200190f35b3480156100ea57600080fd5b506100b5600435610134565b34801561010257600080fd5b5061008961013f565b600054101590565b61011c8161010b565b1561012b576000805482900390555b50565b60005490565b600080549091019055565b6000805411905600a165627a7a7230582059431e8e12b5a472bedfef1312a0858fac3466562d1be4adf2830182baf22e820029",
  "source": "pragma solidity 0.4.24;\n\ninterface Regulator {\n\t//接口方法只能声明为external权限\n    function checkValue(uint) external returns (bool);\n\tfunction loan() external view returns (bool);\n}\n\ncontract Bank is Regulator {\n    uint private value;\n\n\tconstructor(uint amount) public {\n\t    value = amount;\n\t}\n\n\tfunction deposit(uint amount) public {\n\t    value += amount;\n\t}\n\n\tfunction withdraw(uint amount) public {\n\t    if (checkValue(amount)) {\n\t\t    value -= amount;\n\t\t}\n\t}\n\n\tfunction balance() public view returns (uint) {\n\t    return value;\n\t}\n\n\tfunction checkValue(uint amount) public view returns (bool) {\n\t    return value >= amount;\n\t}\n\n\t//实现接口时，方法必须为public、external权限,不能为internal、private权限\n\tfunction loan() public view returns (bool) {\n\t    return value > 0;\n\t}\n}\n\ncontract MyFirstContract is Bank(10) {\n    string private name;\n\tuint private age;\n\tuint[] private x;\n\tstruct Person {\n\t    string name;\n\t\tuint age;\n\t}\n\tmapping(uint => string) employ;\n\n\tfunction setName(string _name) public {\n\t    name = _name;\n\t}\n\n\tfunction getName() public view returns (string) {\n        return name;\t\n\t}\n\n\tfunction setAge(uint _age) public {\n\t    age = _age;\n\t}\n\n\tfunction getAge() public view returns (uint) {\n\t    return age;\n\t}\n    \n\t//支持方法重载\n\tfunction getAge(string) public view returns (uint) {\n\t    return age;\n\t}\n\n\t//支持省略无用的参数名,只声明参数类型，但参数一样会入栈\n\tfunction getAge(uint) public view returns (uint) {\n\t    return age;\n\t}\n\n\n\n\n}\n",
  "sourcePath": "/Users/knight/Documents/geth/smart-contracts/hello/contracts/inherit.sol",
  "compiler": {
    "name": "solc",
    "version": "0.4.24+commit.e67f0147.Emscripten.clang"
  },
  "schemaVersion": "2.0.1",
  "updatedAt": "2018-07-26T14:30:08.638Z"
}