{
  "contractName": "C",
  "abi": [
    {
      "constant": true,
      "inputs": [],
      "name": "b",
      "outputs": [
        {
          "name": "",
          "type": "address"
        }
      ],
      "payable": false,
      "stateMutability": "view",
      "type": "function"
    },
    {
      "inputs": [
        {
          "name": "_b",
          "type": "address"
        }
      ],
      "payable": false,
      "stateMutability": "nonpayable",
      "type": "constructor"
    },
    {
      "constant": false,
      "inputs": [
        {
          "name": "_value",
          "type": "uint256"
        }
      ],
      "name": "c1",
      "outputs": [],
      "payable": false,
      "stateMutability": "nonpayable",
      "type": "function"
    }
  ],
  "bytecode": "0x608060405234801561001057600080fd5b506040516020806101fb833981016040525160008054600160a060020a03909216600160a060020a03199092169190911790556101a9806100526000396000f30060806040526004361061004b5763ffffffff7c01000000000000000000000000000000000000000000000000000000006000350416634df7e3d0811461005057806366eb10361461008e575b600080fd5b34801561005c57600080fd5b506100656100a8565b6040805173ffffffffffffffffffffffffffffffffffffffff9092168252519081900360200190f35b34801561009a57600080fd5b506100a66004356100c4565b005b60005473ffffffffffffffffffffffffffffffffffffffff1681565b600054604080517f2fc0e82700000000000000000000000000000000000000000000000000000000815273ffffffffffffffffffffffffffffffffffffffff9092166004830152602482018390525173__A_____________________________________91632fc0e827916044808301926020929190829003018186803b15801561014e57600080fd5b505af4158015610162573d6000803e3d6000fd5b505050506040513d602081101561017857600080fd5b5050505600a165627a7a72305820bddc8b5aa7578b230370b1a7bdd85e504dbc838ed480360e409d5d13b0d131860029",
  "source": "pragma solidity 0.4.24;\n\nimport './A.sol';\nimport './B.sol';\n\ncontract C {\n    using A for B;\n\tB public b;\n\n\tconstructor(B _b) public {\n\t    b = _b;\n\t}\n\n\tfunction c1(uint256 _value) public {\n\t    b.a1(_value);\n\t}\n}\n",
  "sourcePath": "/Users/knight/Documents/geth/smart-contracts/hello/contracts/library/C.sol",
  "compiler": {
    "name": "solc",
    "version": "0.4.24+commit.e67f0147.Emscripten.clang"
  },
  "schemaVersion": "2.0.1",
  "updatedAt": "2018-08-02T06:47:10.967Z"
}