{
  "contractName": "D",
  "abi": [
    {
      "constant": true,
      "inputs": [],
      "name": "d",
      "outputs": [],
      "payable": false,
      "stateMutability": "pure",
      "type": "function"
    }
  ],
  "bytecode": "0x6080604052348015600f57600080fd5b5060858061001e6000396000f300608060405260043610603e5763ffffffff7c01000000000000000000000000000000000000000000000000000000006000350416638a054ac281146043575b600080fd5b348015604e57600080fd5b5060556057565b005b5600a165627a7a72305820acfb336c3ee245bdcd4f0da0a563f47f0302ae997b2936043dcd8516164495250029",
  "source": "pragma solidity 0.4.24;\n\ncontract D {\n\n\tfunction d() public pure {\n\t\n\t}\n}\n",
  "sourcePath": "D.sol",
  "compiler": {
    "name": "solc",
    "version": "0.4.24+commit.e67f0147.Emscripten.clang"
  },
  "schemaVersion": "2.0.1",
  "updatedAt": "2018-08-02T06:52:40.282Z"
}