{
  "contractName": "E",
  "abi": [
    {
      "constant": true,
      "inputs": [],
      "name": "e",
      "outputs": [],
      "payable": false,
      "stateMutability": "pure",
      "type": "function"
    }
  ],
  "bytecode": "0x6080604052348015600f57600080fd5b5060858061001e6000396000f300608060405260043610603e5763ffffffff7c0100000000000000000000000000000000000000000000000000000000600035041663ffae15ba81146043575b600080fd5b348015604e57600080fd5b5060556057565b005b5600a165627a7a723058206644c0dc493a459bf1e224725f3d25b61cebcc5ce40eb09ed153c3b876cf188e0029",
  "source": "pragma solidity 0.4.24;\n\nimport './D.sol';\n\ncontract E {\n\n    function e() public pure {\n\t\n\t}\n}\n",
  "sourcePath": "E.sol",
  "compiler": {
    "name": "solc",
    "version": "0.4.24+commit.e67f0147.Emscripten.clang"
  },
  "schemaVersion": "2.0.1",
  "updatedAt": "2018-08-02T06:52:40.284Z"
}