{
  "contractName": "F",
  "abi": [
    {
      "constant": true,
      "inputs": [
        {
          "name": "_d",
          "type": "address"
        }
      ],
      "name": "f",
      "outputs": [],
      "payable": false,
      "stateMutability": "pure",
      "type": "function"
    }
  ],
  "bytecode": "0x6080604052348015600f57600080fd5b50609f8061001e6000396000f300608060405260043610603e5763ffffffff7c0100000000000000000000000000000000000000000000000000000000600035041663fc68521a81146043575b600080fd5b348015604e57600080fd5b50606e73ffffffffffffffffffffffffffffffffffffffff600435166070565b005b505600a165627a7a72305820b71d9f875741995aa6d222db380895f8aa4f01cf3cbc8978b4770cda4086f6070029",
  "source": "pragma solidity 0.4.24;\n\nimport 'E.sol';\nimport 'D.sol';\n\ncontract F {\n\n\tfunction f(D _d) public pure {\n\t\n\t}\n}\n",
  "sourcePath": "/Users/knight/Documents/geth/smart-contracts/hello/contracts/library/F.sol",
  "compiler": {
    "name": "solc",
    "version": "0.4.24+commit.e67f0147.Emscripten.clang"
  },
  "schemaVersion": "2.0.1",
  "updatedAt": "2018-08-02T06:52:41.149Z"
}