{
  "contractName": "Hello",
  "abi": [
    {
      "inputs": [
        {
          "name": "_value",
          "type": "uint8"
        }
      ],
      "payable": false,
      "stateMutability": "nonpayable",
      "type": "constructor"
    },
    {
      "payable": true,
      "stateMutability": "payable",
      "type": "fallback"
    },
    {
      "anonymous": false,
      "inputs": [
        {
          "components": [
            {
              "name": "name",
              "type": "string"
            },
            {
              "name": "sex",
              "type": "string"
            },
            {
              "name": "age",
              "type": "uint8"
            }
          ],
          "indexed": false,
          "name": "xx",
          "type": "tuple"
        }
      ],
      "name": "Personx",
      "type": "event"
    },
    {
      "anonymous": false,
      "inputs": [
        {
          "indexed": false,
          "name": "value",
          "type": "uint256"
        }
      ],
      "name": "T22_Logger",
      "type": "event"
    },
    {
      "anonymous": false,
      "inputs": [
        {
          "indexed": false,
          "name": "balance",
          "type": "uint256"
        }
      ],
      "name": "Fallback_Logger",
      "type": "event"
    },
    {
      "anonymous": false,
      "inputs": [
        {
          "indexed": false,
          "name": "sender",
          "type": "address"
        }
      ],
      "name": "Sender_Logger",
      "type": "event"
    },
    {
      "constant": false,
      "inputs": [
        {
          "name": "_value",
          "type": "uint8"
        }
      ],
      "name": "t1",
      "outputs": [
        {
          "name": "",
          "type": "uint256"
        }
      ],
      "payable": false,
      "stateMutability": "nonpayable",
      "type": "function"
    },
    {
      "constant": true,
      "inputs": [],
      "name": "t2",
      "outputs": [
        {
          "name": "",
          "type": "uint256"
        }
      ],
      "payable": false,
      "stateMutability": "view",
      "type": "function"
    },
    {
      "constant": true,
      "inputs": [
        {
          "name": "_value",
          "type": "int256"
        }
      ],
      "name": "t3",
      "outputs": [
        {
          "name": "",
          "type": "int256"
        }
      ],
      "payable": false,
      "stateMutability": "pure",
      "type": "function"
    },
    {
      "constant": false,
      "inputs": [],
      "name": "t4",
      "outputs": [
        {
          "name": "",
          "type": "uint256"
        }
      ],
      "payable": false,
      "stateMutability": "nonpayable",
      "type": "function"
    },
    {
      "constant": false,
      "inputs": [],
      "name": "t5",
      "outputs": [
        {
          "name": "",
          "type": "uint256[]"
        }
      ],
      "payable": false,
      "stateMutability": "nonpayable",
      "type": "function"
    },
    {
      "constant": true,
      "inputs": [
        {
          "name": "_value",
          "type": "int256"
        },
        {
          "name": "_value2",
          "type": "string"
        }
      ],
      "name": "t6",
      "outputs": [
        {
          "name": "",
          "type": "int256"
        },
        {
          "name": "",
          "type": "string"
        }
      ],
      "payable": false,
      "stateMutability": "pure",
      "type": "function"
    },
    {
      "constant": true,
      "inputs": [
        {
          "name": "_value",
          "type": "int256"
        }
      ],
      "name": "t6",
      "outputs": [
        {
          "name": "",
          "type": "int256"
        }
      ],
      "payable": false,
      "stateMutability": "pure",
      "type": "function"
    },
    {
      "constant": true,
      "inputs": [],
      "name": "t6",
      "outputs": [
        {
          "name": "",
          "type": "int256"
        },
        {
          "name": "",
          "type": "string"
        }
      ],
      "payable": false,
      "stateMutability": "pure",
      "type": "function"
    },
    {
      "constant": true,
      "inputs": [
        {
          "name": "_value",
          "type": "string"
        }
      ],
      "name": "t6",
      "outputs": [
        {
          "name": "",
          "type": "string"
        }
      ],
      "payable": false,
      "stateMutability": "pure",
      "type": "function"
    },
    {
      "constant": false,
      "inputs": [],
      "name": "t7",
      "outputs": [
        {
          "name": "",
          "type": "uint256"
        }
      ],
      "payable": false,
      "stateMutability": "nonpayable",
      "type": "function"
    },
    {
      "constant": false,
      "inputs": [],
      "name": "t8",
      "outputs": [
        {
          "name": "",
          "type": "uint256[4]"
        }
      ],
      "payable": false,
      "stateMutability": "nonpayable",
      "type": "function"
    },
    {
      "constant": false,
      "inputs": [],
      "name": "t9",
      "outputs": [
        {
          "name": "",
          "type": "uint256[4]"
        }
      ],
      "payable": false,
      "stateMutability": "nonpayable",
      "type": "function"
    },
    {
      "constant": true,
      "inputs": [],
      "name": "t10",
      "outputs": [
        {
          "name": "",
          "type": "uint256[4]"
        }
      ],
      "payable": false,
      "stateMutability": "view",
      "type": "function"
    },
    {
      "constant": false,
      "inputs": [],
      "name": "t11",
      "outputs": [
        {
          "name": "",
          "type": "uint256[]"
        }
      ],
      "payable": false,
      "stateMutability": "nonpayable",
      "type": "function"
    },
    {
      "constant": true,
      "inputs": [],
      "name": "t12",
      "outputs": [
        {
          "name": "",
          "type": "uint256[]"
        }
      ],
      "payable": false,
      "stateMutability": "pure",
      "type": "function"
    },
    {
      "constant": false,
      "inputs": [],
      "name": "t13",
      "outputs": [
        {
          "name": "",
          "type": "uint256"
        },
        {
          "name": "",
          "type": "uint256"
        },
        {
          "name": "",
          "type": "uint256"
        },
        {
          "name": "",
          "type": "uint256"
        }
      ],
      "payable": false,
      "stateMutability": "nonpayable",
      "type": "function"
    },
    {
      "constant": false,
      "inputs": [],
      "name": "t14",
      "outputs": [
        {
          "name": "",
          "type": "uint256[]"
        },
        {
          "name": "",
          "type": "uint256[]"
        }
      ],
      "payable": false,
      "stateMutability": "nonpayable",
      "type": "function"
    },
    {
      "constant": true,
      "inputs": [
        {
          "name": "_value",
          "type": "uint256[]"
        }
      ],
      "name": "t14_1",
      "outputs": [],
      "payable": false,
      "stateMutability": "pure",
      "type": "function"
    },
    {
      "constant": true,
      "inputs": [
        {
          "name": "_value",
          "type": "uint256[]"
        }
      ],
      "name": "t14_3",
      "outputs": [],
      "payable": false,
      "stateMutability": "pure",
      "type": "function"
    },
    {
      "constant": true,
      "inputs": [],
      "name": "t15",
      "outputs": [
        {
          "name": "",
          "type": "uint256"
        }
      ],
      "payable": false,
      "stateMutability": "view",
      "type": "function"
    },
    {
      "constant": true,
      "inputs": [],
      "name": "t15_1",
      "outputs": [
        {
          "name": "",
          "type": "uint256"
        }
      ],
      "payable": false,
      "stateMutability": "pure",
      "type": "function"
    },
    {
      "constant": true,
      "inputs": [],
      "name": "t15_2",
      "outputs": [
        {
          "name": "",
          "type": "uint256"
        }
      ],
      "payable": false,
      "stateMutability": "pure",
      "type": "function"
    },
    {
      "constant": false,
      "inputs": [],
      "name": "t16",
      "outputs": [
        {
          "name": "",
          "type": "uint256"
        },
        {
          "name": "",
          "type": "uint256"
        },
        {
          "name": "",
          "type": "uint256"
        }
      ],
      "payable": false,
      "stateMutability": "nonpayable",
      "type": "function"
    },
    {
      "constant": true,
      "inputs": [],
      "name": "t17",
      "outputs": [
        {
          "name": "",
          "type": "uint256"
        }
      ],
      "payable": false,
      "stateMutability": "pure",
      "type": "function"
    },
    {
      "constant": true,
      "inputs": [],
      "name": "t18",
      "outputs": [
        {
          "name": "",
          "type": "uint256"
        }
      ],
      "payable": false,
      "stateMutability": "pure",
      "type": "function"
    },
    {
      "constant": true,
      "inputs": [
        {
          "name": "_value",
          "type": "uint256[5]"
        }
      ],
      "name": "t18_1",
      "outputs": [],
      "payable": false,
      "stateMutability": "pure",
      "type": "function"
    },
    {
      "constant": true,
      "inputs": [
        {
          "name": "_value",
          "type": "uint256[5][]"
        }
      ],
      "name": "t18_2",
      "outputs": [
        {
          "name": "",
          "type": "uint256[5][]"
        }
      ],
      "payable": false,
      "stateMutability": "pure",
      "type": "function"
    },
    {
      "constant": false,
      "inputs": [],
      "name": "t19",
      "outputs": [
        {
          "name": "",
          "type": "uint8"
        }
      ],
      "payable": false,
      "stateMutability": "nonpayable",
      "type": "function"
    },
    {
      "constant": true,
      "inputs": [],
      "name": "t20",
      "outputs": [
        {
          "name": "",
          "type": "uint256"
        }
      ],
      "payable": false,
      "stateMutability": "pure",
      "type": "function"
    },
    {
      "constant": false,
      "inputs": [
        {
          "name": "_value",
          "type": "uint256"
        }
      ],
      "name": "t21",
      "outputs": [],
      "payable": false,
      "stateMutability": "nonpayable",
      "type": "function"
    },
    {
      "constant": false,
      "inputs": [],
      "name": "t22",
      "outputs": [
        {
          "name": "",
          "type": "uint256"
        }
      ],
      "payable": false,
      "stateMutability": "nonpayable",
      "type": "function"
    },
    {
      "constant": false,
      "inputs": [],
      "name": "t23",
      "outputs": [
        {
          "name": "",
          "type": "address"
        }
      ],
      "payable": false,
      "stateMutability": "nonpayable",
      "type": "function"
    },
    {
      "constant": true,
      "inputs": [],
      "name": "t24",
      "outputs": [
        {
          "name": "",
          "type": "uint256"
        }
      ],
      "payable": false,
      "stateMutability": "view",
      "type": "function"
    },
    {
      "constant": true,
      "inputs": [],
      "name": "t25",
      "outputs": [
        {
          "name": "",
          "type": "uint256"
        },
        {
          "name": "",
          "type": "uint256"
        }
      ],
      "payable": false,
      "stateMutability": "pure",
      "type": "function"
    },
    {
      "constant": true,
      "inputs": [],
      "name": "t26",
      "outputs": [],
      "payable": false,
      "stateMutability": "pure",
      "type": "function"
    },
    {
      "constant": true,
      "inputs": [],
      "name": "e1",
      "outputs": [],
      "payable": false,
      "stateMutability": "pure",
      "type": "function"
    }
  ],
  "bytecode": "0x600a600081905560019081556101006040526080908152600260a0819052600360c052600460e081905262000035929062000073565b5062000046600660026004620000bb565b503480156200005457600080fd5b5060405160208062001d3f833981016040525160ff1660005562000109565b8260048101928215620000a9579160200282015b82811115620000a9578251829060ff1690559160200191906001019062000087565b50620000b7929150620000e9565b5090565b8260048101928215620000a9579182015b82811115620000a9578254825591600101919060010190620000cc565b6200010691905b80821115620000b75760008155600101620000f0565b90565b611c2680620001196000396000f3006080604052600436106101c05763ffffffff7c010000000000000000000000000000000000000000000000000000000060003504166229fbdc81146101f6578063222b27781461023b5780633328a98e146102765780633ae9313c146102a0578063497055391461033457806358dfc49b146103815780636442227a146103965780636983e531146103c157806376e445d6146103d657806378ba821d146103eb5780637b3bdb1a146104005780638701c5cf146104155780638885b4621461042a578063892ec4281461043f57806392c5e81b1461050d578063932b4a2c1461052557806393ecd47114610558578063953f755d14610654578063a21274c314610702578063a2817c2214610717578063a2c2d6661461072f578063aa83587114610744578063b0439335146107a9578063baf2f868146107fe578063bb6d8ffd14610813578063bf573ad914610828578063cde87f6b1461083d578063d2f2b21d14610858578063dedf209b1461086d578063e60b8fe3146108ab578063e6e5e13d146108d9578063f14bb67c1461092e578063f238ca8414610943578063f4a819de14610958578063fbd2686c1461096d578063feae062d146109cb575b604080513031815290517f09ad6761abb2ea209515838f9483e8fd2c01764137d77ebaa6fe07a65802eb709181900360200190a1005b34801561020257600080fd5b506040805160a081810190925261023991369160049160a4919083906005908390839080828437509396506109e095505050505050565b005b34801561024757600080fd5b506102506109f5565b604080519485526020850193909352838301919091526060830152519081900360800190f35b34801561028257600080fd5b5061028e600435610a8d565b60408051918252519081900360200190f35b3480156102ac57600080fd5b506102b5610a90565b6040518083815260200180602001828103825283818151815260200191508051906020019080838360005b838110156102f85781810151838201526020016102e0565b50505050905090810190601f1680156103255780820380516001836020036101000a031916815260200191505b50935050505060405180910390f35b34801561034057600080fd5b50610349610ac9565b6040518082608080838360005b8381101561036e578181015183820152602001610356565b5050505090500191505060405180910390f35b34801561038d57600080fd5b5061028e610b12565b3480156103a257600080fd5b506103ab610b17565b6040805160ff9092168252519081900360200190f35b3480156103cd57600080fd5b5061028e610ca4565b3480156103e257600080fd5b5061028e610cc5565b3480156103f757600080fd5b5061028e610d4b565b34801561040c57600080fd5b5061028e610d56565b34801561042157600080fd5b5061028e610d5b565b34801561043657600080fd5b5061028e610d6f565b34801561044b57600080fd5b506040805160206004803580820135601f8101849004840285018401909552848452610498943694929360249392840191908190840183828082843750949750610a8d9650505050505050565b6040805160208082528351818301528351919283929083019185019080838360005b838110156104d25781810151838201526020016104ba565b50505050905090810190601f1680156104ff5780820380516001836020036101000a031916815260200191505b509250505060405180910390f35b34801561051957600080fd5b5061028e600435610d74565b34801561053157600080fd5b5061053a610d7a565b60408051938452602084019290925282820152519081900360600190f35b34801561056457600080fd5b506040805160048035808201356020818102850181019095528084526105e3943694602493909290840191819060009085015b828210156105d3576040805160a08181019092529080840287019060059083908390808284375050509183525050600190910190602001610597565b509396506111fe95505050505050565b60405180806020018281038252838181518152602001915080516000925b818410156106435760208085028401015160a080838360005b8381101561063257818101518382015260200161061a565b505050509050019260010192610601565b925050509250505060405180910390f35b34801561066057600080fd5b50610669611241565b604051808060200180602001838103835285818151815260200191508051906020019060200280838360005b838110156106ad578181015183820152602001610695565b50505050905001838103825284818151815260200191508051906020019060200280838360005b838110156106ec5781810151838201526020016106d4565b5050505090500194505050505060405180910390f35b34801561070e57600080fd5b50610349611380565b34801561072357600080fd5b5061023960043561140c565b34801561073b57600080fd5b50610239611411565b34801561075057600080fd5b50610759611413565b60408051602080825283518183015283519192839290830191858101910280838360005b8381101561079557818101518382015260200161077d565b505050509050019250505060405180910390f35b3480156107b557600080fd5b5060408051602060048035808201358381028086018501909652808552610239953695939460249493850192918291850190849080828437509497506115609650505050505050565b34801561080a57600080fd5b5061028e611584565b34801561081f57600080fd5b5061028e61158a565b34801561083457600080fd5b506103496115ca565b34801561084957600080fd5b5061028e60ff6004351661160a565b34801561086457600080fd5b50610759611615565b34801561087957600080fd5b506108826116dc565b6040805173ffffffffffffffffffffffffffffffffffffffff9092168252519081900360200190f35b3480156108b757600080fd5b506108c0611718565b6040805192835260208301919091528051918290030190f35b3480156108e557600080fd5b5060408051602060048035808201358381028086018501909652808552610239953695939460249493850192918291850190849080828437509497506117209650505050505050565b34801561093a57600080fd5b5061028e61173e565b34801561094f57600080fd5b50610759611859565b34801561096457600080fd5b506102396118bd565b34801561097957600080fd5b5060408051602060046024803582810135601f81018590048502860185019096528585526102b59583359536956044949193909101919081908401838280828437509497506118bf9650505050505050565b3480156109d757600080fd5b5061028e6118c3565b60018152600260208201526005608090910152565b60408051600a808252610160820190925260009182918291829160019160609184916020820161014080388339019050509150600090505b8151811015610a5757808282815181101515610a4557fe5b60209081029091010152600101610a2d565b60609150610a67600e60006119c7565b610a73600a60006119e8565b506001600a5551600e549196909550909350600492509050565b90565b60408051808201909152600681527f7365636f6e6400000000000000000000000000000000000000000000000000006020820152600191565b610ad1611a04565b6064600290815561012c60055560408051608081019182905290829060049082845b815481526020019060010190808311610af357505050505091505b5090565b606390565b60408051600a80825261016082019092526000916060918391816020015b610b3d611a23565b815260200190600190039081610b35579050509150600090505b8151811015610c80576040805160a0810182526003606082019081527f666f6f00000000000000000000000000000000000000000000000000000000006080830152815281518083018352600481527f6d616c650000000000000000000000000000000000000000000000000000000060208281019190915282015260ff8316918101919091528251839083908110610bec57fe5b602090810290910101528151601290839083908110610c0757fe5b6020908102909101810151825460018101808555600094855293839020825180519394600390930290910192610c409284920190611a42565b506020828101518051610c599260018501920190611a42565b50604091909101516002909101805460ff191660ff90921691909117905550600101610b57565b816009815181101515610c8f57fe5b90602001906020020151604001519250505090565b60006118bd610cb16118f6565b9050610cbf8163ffffffff16565b91505090565b60408051600a808252610160820190925260009160609190816020015b610cea611abc565b815260200190600190039081610ce2579050509050610d20816000815181101515610d1157fe5b906020019060200201516109e0565b610d29816111fe565b50806001815181101515610d3957fe5b60209081029190910101515192915050565b600b60015560005490565b606490565b6000610d6a6001610d746118fc565b905090565b303190565b60010190565b6000806000610d87611a23565b6000610dff6040805190810160405280600381526020017f6a6f7900000000000000000000000000000000000000000000000000000000008152506040805190810160405280600481526020017f6d616c6500000000000000000000000000000000000000000000000000000000815250600a611912565b9150610e0a8261193a565b6001600052601160209081528251805184927f17bc176d2408558f6e4111feebc3cab4e16b63e967be91cde721f4c8a488b55292610e4e9284929190910190611a42565b506020828101518051610e679260018501920190611a42565b50604091909101516002918201805460ff90921660ff1992831617905560116020527f17bc176d2408558f6e4111feebc3cab4e16b63e967be91cde721f4c8a488b554805490911660c817905560008190527f17bc176d2408558f6e4111feebc3cab4e16b63e967be91cde721f4c8a488b552805490917f08037d7b151cc412d25674a4e66b334d9ae9d2e5517a7feaae5cdb828bf1c62891610f1e91839185916000196001831615610100020190911604611adb565b5060018201816001019080546001816001161561010002031660029004610f46929190611adb565b50600291820154908201805460ff90921660ff1992831617905560116020527f08037d7b151cc412d25674a4e66b334d9ae9d2e5517a7feaae5cdb828bf1c62a805460d29216919091179055600160008190527f17bc176d2408558f6e4111feebc3cab4e16b63e967be91cde721f4c8a488b55280549092601392610fde928492869261010090831615026000190190911604611adb565b5060018201816001019080546001816001161561010002031660029004611006929190611adb565b50600291820154908201805460ff1990811660ff909316929092179055601580549091166058179055604080516013805460806020601f600019600185161561010002019093169690960491820186900490950283018501909352606082018381526111849492939192849284918401828280156110c55780601f1061109a576101008083540402835291602001916110c5565b820191906000526020600020905b8154815290600101906020018083116110a857829003601f168201915b50505050508152602001600182018054600181600116156101000203166002900480601f0160208091040260200160405190810160405280929190818152602001828054600181600116156101000203166002900480156111675780601f1061113c57610100808354040283529160200191611167565b820191906000526020600020905b81548152906001019060200180831161114a57829003601f168201915b50505091835250506002919091015460ff1660209091015261193a565b61118e6013611992565b5050601160205250507f17bc176d2408558f6e4111feebc3cab4e16b63e967be91cde721f4c8a488b554805460ff1916601e179081905560155460026000527f08037d7b151cc412d25674a4e66b334d9ae9d2e5517a7feaae5cdb828bf1c62a5460ff9182169492821693501690565b6060606482600181518110151561121157fe5b60209081029190910101515281516065908390600190811061122f57fe5b60209081029190910181015101525090565b6040805160018082528183019092526060918291829160208083019080388339019050509050600181600081518110151561127857fe5b6020908102909101015261128b81611560565b600e80546001818101835560008390527fbb7b4a454dc3493923482f07822329ed19e8244eff582cc204f8554c3620c3fd909101556112c9906119a2565b611322600e80548060200260200160405190810160405280929190818152602001828054801561131857602002820191906000526020600020905b815481526020019060010190808311611304575b5050505050611720565b80600e8080548060200260200160405190810160405280929190818152602001828054801561137057602002820191906000526020600020905b81548152602001906001019080831161135c575b5050505050905092509250509091565b611388611a04565b611390611a04565b6040805160808101918290529060029060049082845b8154815260200190600101908083116113a6575050505050905060c88160006004811015156113d157fe5b6020020152604080516080810190915260026004828282602002820191815481526020019060010190808311610af357505050505091505090565b601655565b565b60606080604051908101604052806001815260200160028152602001600381526020016004815250600a90600461144b929190611b50565b506080604051908101604052806001815260200160028152602001600381526020016004815250600e906004611482929190611b7d565b506064611490600e82611bb7565b506064600e600a8154811015156114a357fe5b6000918252602080832090910192909255600e805460018181018355928290527fbb7b4a454dc3493923482f07822329ed19e8244eff582cc204f8554c3620c3fd9081018390558154808401835560029082015581548084018355600390820155815492830182556004920191909155805460408051828502810185019091528181529283018282801561155657602002820191906000526020600020905b815481526020019060010190808311611542575b5050505050905090565b600181600081518110151561157157fe5b6020908102909101018051909101905250565b60005490565b60165460408051918252516000917f1ac5c373c215a7b4b70c27fa3f300f4e661e81e4eaa09c5484bf1e9e5b8e3a96919081900360200190a15060165490565b6115d2611a04565b606460065560c86007556040805160808101918290526002805482529091600490600360208501808311611542575050505050905090565b60ff16600081905590565b601060209081527fbbe6df1631c6a5c37158096bc15825d83d22eaca9ac1e829be6dfcdebed1d2d780546001818101835560647f1ffb51ff20e208878c123aa52ee12452450631c7fc152644deeba9677ba6b7d59283015582548082018455606590830155825490810183556066910155600a60005280546040805182850281018501909152818152606093909291908301828280156115565760200282019190600052602060002090815481526020019060010190808311611542575050505050905090565b6040805133815290516000917fbe87dd366f1c40fe536d9de71bc5b765ae82b952df9409ee3cd058f727a7f60d919081900360200190a1503390565b60019060ff90565b606f81600081518110151561173157fe5b6020908102909101015250565b6000803073ffffffffffffffffffffffffffffffffffffffff166358dfc49b6040518163ffffffff167c0100000000000000000000000000000000000000000000000000000000028152600401602060405180830381600087803b1580156117a557600080fd5b505af11580156117b9573d6000803e3d6000fd5b505050506040513d60208110156117cf57600080fd5b5051604080517f7b3bdb1a00000000000000000000000000000000000000000000000000000000815290519192503091637b3bdb1a916004808201926020929091908290030181600087803b15801561182757600080fd5b505af115801561183b573d6000803e3d6000fd5b505050506040513d602081101561185157600080fd5b505192915050565b60408051600a80825261016082019092526060918291906020820161014080388339019050509050600181600081518110151561189257fe5b602090810290910101528051600490829060039081106118ae57fe5b60209081029091010152905090565bfe5b9091565b600a600052600f60205260017fa13a7a52a9cbb6a90f40d40fbf35f68146be73226e0f48ff16963183fd5684ad81905590565b6119c290565b600061190b838363ffffffff16565b9392505050565b61191a611a23565b5060408051606081018252938452602084019290925260ff169082015290565b805180518291601391611954918391602090910190611a42565b50602082810151805161196d9260018501920190611a42565b50604091820151600291909101805460ff191660ff9092169190911790556064910152565b600201805460ff1916600b179055565b60de8160008154811015156119b357fe5b60009182526020909120015550565b600a90565b50805460008255906000526020600020908101906119e59190611be0565b50565b5060008155600101600081556001016000815560010160009055565b6080604051908101604052806004906020820280388339509192915050565b6040805160608181018352808252602082015260009181019190915290565b828054600181600116156101000203166002900490600052602060002090601f016020900481019282601f10611a8357805160ff1916838001178555611ab0565b82800160010185558215611ab0579182015b82811115611ab0578251825591602001919060010190611a95565b50610b0e929150611be0565b60a0604051908101604052806005906020820280388339509192915050565b828054600181600116156101000203166002900490600052602060002090601f016020900481019282601f10611b145780548555611ab0565b82800160010185558215611ab057600052602060002091601f016020900482015b82811115611ab0578254825591600101919060010190611b35565b8260048101928215611ab05791602002820182811115611ab0578251825591602001919060010190611a95565b828054828255906000526020600020908101928215611ab05791602002820182811115611ab0578251825591602001919060010190611a95565b815481835581811115611bdb57600083815260209020611bdb918101908301611be0565b505050565b610a8d91905b80821115610b0e5760008155600101611be65600a165627a7a72305820e92e1fcdc31d8aefddb2e516ccf55f5c1445b1c16b54d5ec7ad2d52b41d9b4f50029",
  "source": "pragma solidity ^0.4.24;\n//pragma experimental ABIEncoderV2; //\n\ncontract Hello {\n\tuint x = 10;\n\tuint y = x; // (:t7() )\n\n\tuint[4] x_array = [1, 2, 3, 4];\n\tuint[4] y_array = x_array; // (:t8() )\n\tuint[4] z_array; //pushpop\n\tuint[]  k_array; //pushpop\n\n\tmapping(uint256 => uint) private map;\n    mapping(uint256 => uint[]) private map2;\n\tmapping(uint256 => Person) private map3;\n\n\tstruct Person { //struct\n\t    string name;\n\t\tstring sex;\n\t\tuint8  age;\n\t}\n\n\tPerson[] person_list;\n    \n\tPerson p;\n\n\tuint private remoteValue;\n\n\t//\n\tevent Personx(Person xx);\n\tevent T22_Logger(uint value);\n\tevent Fallback_Logger(uint balance);\n\tevent Sender_Logger(address sender);\n\n\t//\n\t//\n    constructor(uint8 _value) public {\n\t    x = _value;\n\t\t//this.t2();//this\n\t}\n\n\t//\n\tfunction t1(uint8 _value) public returns (uint){\n\t\tx = _value;\n\t\treturn x;\n\t}\n\n\t/**\n\t *  viewconstant\n\t *  :\n\t *    - .\n\t *    - \n\t *    - selfdestruct\n\t *    - \n\t *    - call (Sending Ether via calls)\n\t *    - viewpure\n\t *    - call (Using low-level calls)\n\t *    -  (Using inline assembly that contains certain opcodes)\n\t */\n\tfunction t2() public view returns (uint) {\n\t    return x;\n\t}\n\n\t/**\n\t * pure\n\t * pure\n\t * :\n\t *   - \n\t *   - this.balance<address>.balance\n\t *   - blocktxmsg\n\t *     (Accessing any of the members of block, tx, msg \n\t *\t   (with the exception of msg.sig and msg.data).)\n\t *\t - pure\n\t *\t - \n\t */\n\tfunction t3(int _value) public pure returns (int) {\n\t    return _value+1;\n\t}\n\n    /**\n\t * mapping\n\t * - mapping, mapping\n\t * - mapping\n\t * - mappingkey\n\t *     - mapping \n\t *     -  (dynamically sized array)\n\t *     -  (contract)\n\t *     -  (enum)\n\t *     -  (struct)\n\t * - mppingvalue\n\t */\n\tfunction t4() public returns (uint) {\n\t\tmap[10] = 1;\n        return map[10];\n\t}\n\n\t/**\n\t * \n\t */\n\tfunction t5() public returns (uint[]) {\n\t\tmap2[10].push(100); //push\n\t\tmap2[10].push(101);\n\t\tmap2[10].push(102);\n\t\treturn map2[10];\n\t} \n\n\t/**\n\t * \n\t */\n\tfunction t6() public pure returns (int, string) {\n\t    //uint x = 100; //\n\t    return (1, 'second');\n\t}\n\n\t/**\n\t * \n\t */\n\tfunction t6(int _value) public pure returns (int) {\n\t    return _value;\n\t}\n\n\t/**\n\t * \n\t */\n\tfunction t6(int _value, string _value2) public pure returns (int, string) {\n\t    return (_value, _value2);\n\t}\n\n\t/**\n\t * \n\t */\n\tfunction t6(string _value) public pure returns (string) {\n\t    return _value;\n\t}\n\n\t/**\n\t * \n\t */\n\tfunction t7() public returns (uint) {\n\t    y = 11;\n\t\treturn x;\n\t}\n\n\t/**\n\t * \n\t * N\n\t * : uint[4] y_array = x_array\n\t * y_arrayx_array\n\t */\n\tfunction t8() public returns (uint[4]) {\n\t    y_array[0] = 100;\n\t\ty_array[1] = 200;\n\n\t\treturn x_array;\n\t}\n\n\t/**\n\t * \n\t * - \n\t *   ,\n\t *\t returns (uint[4]) \n\t *\n\t * - storage (storage)\n\t * - \n\t *   storagememory\n\t */\n\tfunction t9() public returns (uint[4]) {\n\t\t//memorystorage\n\t\t//uint storage _tmp = 10;\n\t\t//uint memory _tmp = 10;\n\n\t    uint[4] storage _value = x_array;\n\t\t_value[0] = 100;\n\t\t_value[3] = 300;\n\n\t\treturn x_array;\n\t}\n\n\t/**\n\t * memory\n\t * \n\t */\n\tfunction t10() public view returns (uint[4]) {\n\t    uint[4] memory _value = x_array;\n\t\t_value[0] = 200;\n\t\treturn x_array;\n\t}\n\n\t/**\n\t * push\n\t * - returns (uint[N])\n\t */\n\tfunction t11() public returns (uint[]) {\n\t    //z_array.push(100); //z_arraypushpop\n\t\t//k_array[2] = 10;   //\n        //z_array = [uint(1), 2, 3, 4, 5]; //z_array4\n\n\t\tz_array = [uint(1), 2, 3, 4]; //\n\t\tk_array = [uint(1), 2, 3, 4]; //\n\n\t\tk_array.length = 100; //1000~990\n\t\tk_array[10] = 100; //10100\n\t\t\n\t\tk_array.push(1); //push1 (100)\n\t\tk_array.push(2); //push 2 (101)\n\t\tk_array.push(3);\n\t\tk_array.push(4); //104\n\n\t\treturn k_array;\n\t}\n\n\n\tfunction t12() public pure returns (uint[]) {\n\t   // uint[] memory _value = [uint(1), 2, 3]; //\n\t   // uint[] storage _value = new uint[](10); //memorystorage \n\n        uint[] memory _value = new uint[](10); //100\t\n\t\t//_value.push(10); //memory pushpop\n\t\t_value[0] = 1;\n\t\t_value[3] = 4;\n\t\treturn _value;\n\t}\n\n\tfunction t13() public returns (uint, uint, uint, uint) {\n\t    uint _value = 10;\n\t\tdelete _value; //delete0\n\t\t_value += 1;   //1\n\n\t\tuint[] memory _value2 = new uint[](10);\n\t\tfor(uint i=0; i<_value2.length; i++) {\n\t\t    _value2[i] = i;\n\t\t}\n\t    delete _value2; //delete0\t\n\t\t//_value2[0] = 1; //0\n\t\n\t    //uint[] storage k_local = k_array;\t\n\t\t//delete k_local; //k_local\n\n\t\tdelete k_array; //, delete0\n\t\t//k_array[0] = 1; //0\n\n        delete z_array; //delete\n\t\tz_array[0] = 1;\n\n\t\treturn (_value, _value2.length, k_array.length, z_array.length);\n\t}\n\n\t/**\n\t * \n\t *\n\t * memorymemory   -> \n\t * storagestorage -> \n\t * storagememory  -> \n\t *\n\t * memorystorage -> \n\t * storageinternalprivate\n\t */\n\tfunction t14() public returns (uint[], uint[]) {\n\t    uint[] memory _value = new uint[](1);\n\t\t_value[0] = 1;\n\t\tt14_1(_value); //_value[0] == 2 memory->memory \n\n\t\tk_array.push(1);\n\t\tt14_2(k_array); //k_array[0] == 222 storage->storage \n\t\tt14_3(k_array); //k_array[0] == 222 storage->memory  \n\n\t\treturn (_value, k_array);\n\t}\n\n\tfunction t14_1(uint[] memory _value) public pure {\n\t    _value[0] += 1;\n\t} \n\n\tfunction t14_2(uint[] storage _value) internal {\n        _value[0] = 222;\t\n\t}\n\n\t//memorystorage\n\tfunction t14_3(uint[] memory _value) public pure {\n        _value[0] = 111;\t\n\t}\n\n\tfunction t15() public view returns (uint) {\n\t\tuint _x; \n\t\t_x = this.t15_1();\n\t\t_x = this.t15_2();\n\t\t//_x = t15_1(); externalthis\n\t\t//_x = this.t15_3(); thisinternal\n\t\t//_x = this.t15_4(); thisprivate\n\t\treturn _x;\n\t} \n\n\tfunction t15_1() external pure returns (uint) {\n\t    return 99;\n\t}\n\n\tfunction t15_2() public pure returns (uint) {\n\t    return 100;\n\t}\n\n\tfunction t15_3() internal pure returns (uint) {\n        return 101;\t\n\t}\n\n\tfunction t15_4() private pure returns (uint) {\n\t    return 102;\n\t}\n\n\t/**\n\t * \n\t */\n\tfunction t16() public returns (uint, uint, uint) {\n\t\t/*\n\t\t Person storage person2 = Person({name:'jack', sex:'famale', age:18});\n\t\t Person storage person3 = Person;\n\t    */\n\n\t\tPerson memory person = t16_1({_name:'joy', _sex:'male', _age:10});\n\t\tt16_2(person); //memory->memory : person.age == 100\n\t\tmap3[1] = person; //map3[1]\n\t\tmap3[1].age = 200; //, person.age == 100;\n\n\t\tmap3[2] = map3[1]; //\n\t\tmap3[2].age = 210; //: map3[1].age == 200\n\n\t\tp = map3[1]; //\n\t\tp.age = 88; //map3[1].age\n\t\tt16_2(p); //storage->memory \n\t\tt16_3(p); //storage->storage  p.age == 11;\n\n\t\tPerson storage person2 = map3[1]; //, person2map3[1]\n\t\tperson2.age = 30; //map3[1],20030\n\t\t\n\t\treturn (p.age, map3[1].age, map3[2].age);\n\t}\n    \n\t//internalprivate\n\tfunction t16_1(string _name, string _sex, uint8 _age) \n\t    internal \n\t    pure \n\t    returns (Person) \n\t{\n\t    return Person({name:_name, sex:_sex, age:_age});\n\t}\n\n\t//internalprivate\n\tfunction t16_2(Person memory _person) internal {\n        p = _person; //\n        _person.age = 100;\t//p\n\t} \n\n\tfunction t16_3(Person storage _person) internal {\n\t    _person.age = 11;\n\t}\n\n\t/**\n\t * \n\t */\n\tfunction t17() public pure returns (uint) {\n\t    return t17_1(1, t17_2);\n\t}\n\n\tfunction t17_1(\n\t    uint _value,\n\t\tfunction (uint) internal pure returns (uint) f //\n\t) \n\t    internal\n\t\tpure\n\t\treturns (uint)\n\t{\n        return f(_value);\t\n\t}\n\n\tfunction t17_2(uint _value) internal pure returns (uint) {\n\t    return _value += 1;\n\t}\n\n    /**\n\t * \n\t */\n\tfunction t18() public pure returns (uint) {\n\t\t//105\n\t    uint[5][] memory _value = new uint[5][](10);\n\t\tt18_1(_value[0]);\n\t\tt18_2(_value);\n\n\t\t//return _value.length; //10\n\t\t//return _value[7].length; //5\n\t\treturn _value[1][0];\n\t}\n\n\tfunction t18_1(uint[5] _value) public pure {\n        _value[0] = 1; \t\n\t\t_value[1] = 2;\n\t\t_value[4] = 5;\n\t}  \n    \n\t//\n\tfunction t18_2(uint[5][] _value) public pure returns (uint[5][]) {\n        _value[1][0] = 100;\n\t    _value[1][1] = 101;\t\n\t\treturn _value;\n\t}\n\n\t//\n\tfunction t19() public returns (uint8) {\n\t    Person[] memory _p = new Person[](10);\n\n\t\tfor(uint i=0; i<_p.length; i++) {\n\t        _p[i] = Person({name:'foo', sex:'male', age:uint8(i)});\t\n\t\t\tperson_list.push(_p[i]);\n\t\t}\n\n\t\treturn _p[9].age;\n\t}\n\n\t//\n\tfunction t20() public pure returns (uint) {\n\t\t// _f\n\t    function() internal pure returns(uint) _f = t20_1();\n\t\treturn _f();\n\t}\n\n\t//\n\tfunction t20_1() internal pure returns (\n\t\tfunction() internal pure returns (uint)\n\t) {\n\t    return t20_2; \n\t}\n\n\tfunction t20_2() internal pure returns (uint) {\n\t    return 10;\n\t}\n\n    function t21(uint _value) external {\n\t    remoteValue = _value; \n\t}\n\n\tfunction t22() public returns (uint) {\n\t\temit T22_Logger(remoteValue);\n\t    return remoteValue;\n\t}\n\n\tfunction t23() public returns (address) {\n\t\temit Sender_Logger(msg.sender);\n\t    return msg.sender;\n\t}\n\n\tfunction t24() public view returns (uint) {\n\t    return address(this).balance;\n\t}\n\n\tfunction t25() public pure returns (uint, uint) {\n        bytes1 _value = 255;\t\n\t\tbytes3 _value2 = 16777215; \n\t\treturn (_value.length, uint(_value2[0]));\n\t}\n\n\t/**\n\t * - assert()\n\t * - assertgas\n\t *\n\t * assert\n\t * 1. (x[i], i>x.lengthi<0) \n\t * 2. bytesN\n\t * 3. 0 (5 / 0  23 % 0)\n\t * 4. \n\t * 5. \n\t * 6. internal\n\t * 7. assert()false\n\t */\n    function t26() public pure {\n        assert(false);\t\n\t}\n\n\t/**\n\t * \n\t * - \n\t *   send()transfer()\n\t * - payable\n\t * - \n\t * - \n\t * - \n\t * - external,public\n\t * - msg.data\n\t *   \n\t * - gas\n\t */\n\tfunction () public payable {\n        emit Fallback_Logger(address(this).balance);\t\n\t}\n\n    // mapping\n    function e1() public pure {\n\t    //mapping(uint => uint) _x;\n\t    //_x[1] = 255;    \n\t}\t\n}\n",
  "sourcePath": "/Users/knight/Documents/geth/smart-contracts/hello/contracts/hello/hello.sol",
  "compiler": {
    "name": "solc",
    "version": "0.4.24+commit.e67f0147.Emscripten.clang"
  },
  "schemaVersion": "2.0.1",
  "updatedAt": "2018-08-02T06:47:46.419Z"
}