{
  "contractName": "MyAdvancedToken",
  "abi": [
    {
      "constant": true,
      "inputs": [],
      "name": "name",
      "outputs": [
        {
          "name": "",
          "type": "string"
        }
      ],
      "payable": false,
      "stateMutability": "view",
      "type": "function"
    },
    {
      "constant": false,
      "inputs": [
        {
          "name": "_spender",
          "type": "address"
        },
        {
          "name": "_value",
          "type": "uint256"
        }
      ],
      "name": "approve",
      "outputs": [
        {
          "name": "",
          "type": "bool"
        }
      ],
      "payable": false,
      "stateMutability": "nonpayable",
      "type": "function"
    },
    {
      "constant": true,
      "inputs": [],
      "name": "totalSupply",
      "outputs": [
        {
          "name": "",
          "type": "uint256"
        }
      ],
      "payable": false,
      "stateMutability": "view",
      "type": "function"
    },
    {
      "constant": false,
      "inputs": [
        {
          "name": "_from",
          "type": "address"
        },
        {
          "name": "_to",
          "type": "address"
        },
        {
          "name": "_value",
          "type": "uint256"
        }
      ],
      "name": "transferFrom",
      "outputs": [
        {
          "name": "",
          "type": "bool"
        }
      ],
      "payable": false,
      "stateMutability": "nonpayable",
      "type": "function"
    },
    {
      "constant": true,
      "inputs": [],
      "name": "decimals",
      "outputs": [
        {
          "name": "",
          "type": "uint8"
        }
      ],
      "payable": false,
      "stateMutability": "view",
      "type": "function"
    },
    {
      "constant": false,
      "inputs": [
        {
          "name": "_value",
          "type": "uint256"
        }
      ],
      "name": "burn",
      "outputs": [
        {
          "name": "",
          "type": "bool"
        }
      ],
      "payable": false,
      "stateMutability": "nonpayable",
      "type": "function"
    },
    {
      "constant": true,
      "inputs": [],
      "name": "sellPrice",
      "outputs": [
        {
          "name": "",
          "type": "uint256"
        }
      ],
      "payable": false,
      "stateMutability": "view",
      "type": "function"
    },
    {
      "constant": true,
      "inputs": [
        {
          "name": "",
          "type": "address"
        }
      ],
      "name": "balanceOf",
      "outputs": [
        {
          "name": "",
          "type": "uint256"
        }
      ],
      "payable": false,
      "stateMutability": "view",
      "type": "function"
    },
    {
      "constant": false,
      "inputs": [
        {
          "name": "_from",
          "type": "address"
        },
        {
          "name": "_value",
          "type": "uint256"
        }
      ],
      "name": "burnFrom",
      "outputs": [
        {
          "name": "",
          "type": "bool"
        }
      ],
      "payable": false,
      "stateMutability": "nonpayable",
      "type": "function"
    },
    {
      "constant": true,
      "inputs": [],
      "name": "buyPrice",
      "outputs": [
        {
          "name": "",
          "type": "uint256"
        }
      ],
      "payable": false,
      "stateMutability": "view",
      "type": "function"
    },
    {
      "constant": true,
      "inputs": [],
      "name": "owner",
      "outputs": [
        {
          "name": "",
          "type": "address"
        }
      ],
      "payable": false,
      "stateMutability": "view",
      "type": "function"
    },
    {
      "constant": true,
      "inputs": [],
      "name": "symbol",
      "outputs": [
        {
          "name": "",
          "type": "string"
        }
      ],
      "payable": false,
      "stateMutability": "view",
      "type": "function"
    },
    {
      "constant": false,
      "inputs": [
        {
          "name": "_to",
          "type": "address"
        },
        {
          "name": "_value",
          "type": "uint256"
        }
      ],
      "name": "transfer",
      "outputs": [
        {
          "name": "",
          "type": "bool"
        }
      ],
      "payable": false,
      "stateMutability": "nonpayable",
      "type": "function"
    },
    {
      "constant": true,
      "inputs": [
        {
          "name": "",
          "type": "address"
        }
      ],
      "name": "frozenAccount",
      "outputs": [
        {
          "name": "",
          "type": "bool"
        }
      ],
      "payable": false,
      "stateMutability": "view",
      "type": "function"
    },
    {
      "constant": false,
      "inputs": [
        {
          "name": "_spender",
          "type": "address"
        },
        {
          "name": "_value",
          "type": "uint256"
        },
        {
          "name": "_extraData",
          "type": "bytes"
        }
      ],
      "name": "approveAndCall",
      "outputs": [
        {
          "name": "",
          "type": "bool"
        }
      ],
      "payable": false,
      "stateMutability": "nonpayable",
      "type": "function"
    },
    {
      "constant": true,
      "inputs": [
        {
          "name": "",
          "type": "address"
        },
        {
          "name": "",
          "type": "address"
        }
      ],
      "name": "allowance",
      "outputs": [
        {
          "name": "",
          "type": "uint256"
        }
      ],
      "payable": false,
      "stateMutability": "view",
      "type": "function"
    },
    {
      "constant": false,
      "inputs": [
        {
          "name": "newOwner",
          "type": "address"
        }
      ],
      "name": "transferOwnership",
      "outputs": [],
      "payable": false,
      "stateMutability": "nonpayable",
      "type": "function"
    },
    {
      "inputs": [
        {
          "name": "_initialSupply",
          "type": "uint256"
        },
        {
          "name": "_tokenName",
          "type": "string"
        },
        {
          "name": "_tokenSymbol",
          "type": "string"
        }
      ],
      "payable": false,
      "stateMutability": "nonpayable",
      "type": "constructor"
    },
    {
      "anonymous": false,
      "inputs": [
        {
          "indexed": false,
          "name": "target",
          "type": "address"
        },
        {
          "indexed": false,
          "name": "frozen",
          "type": "bool"
        }
      ],
      "name": "LogFrozenFunds",
      "type": "event"
    },
    {
      "anonymous": false,
      "inputs": [
        {
          "indexed": true,
          "name": "_from",
          "type": "address"
        },
        {
          "indexed": true,
          "name": "_to",
          "type": "address"
        },
        {
          "indexed": false,
          "name": "_value",
          "type": "uint256"
        }
      ],
      "name": "LogTransfer",
      "type": "event"
    },
    {
      "anonymous": false,
      "inputs": [
        {
          "indexed": true,
          "name": "_owner",
          "type": "address"
        },
        {
          "indexed": true,
          "name": "_spender",
          "type": "address"
        },
        {
          "indexed": false,
          "name": "value",
          "type": "uint256"
        }
      ],
      "name": "LogApproval",
      "type": "event"
    },
    {
      "anonymous": false,
      "inputs": [
        {
          "indexed": true,
          "name": "_from",
          "type": "address"
        },
        {
          "indexed": false,
          "name": "_value",
          "type": "uint256"
        }
      ],
      "name": "LogBurn",
      "type": "event"
    },
    {
      "constant": false,
      "inputs": [
        {
          "name": "_target",
          "type": "address"
        },
        {
          "name": "_mintedAmount",
          "type": "uint256"
        }
      ],
      "name": "mintToken",
      "outputs": [],
      "payable": false,
      "stateMutability": "nonpayable",
      "type": "function"
    },
    {
      "constant": false,
      "inputs": [
        {
          "name": "_target",
          "type": "address"
        },
        {
          "name": "_freeze",
          "type": "bool"
        }
      ],
      "name": "freezeAccount",
      "outputs": [],
      "payable": false,
      "stateMutability": "nonpayable",
      "type": "function"
    },
    {
      "constant": false,
      "inputs": [
        {
          "name": "_newSellPrice",
          "type": "uint256"
        },
        {
          "name": "_newBuyPrice",
          "type": "uint256"
        }
      ],
      "name": "setPrices",
      "outputs": [],
      "payable": false,
      "stateMutability": "nonpayable",
      "type": "function"
    },
    {
      "constant": false,
      "inputs": [],
      "name": "buy",
      "outputs": [],
      "payable": true,
      "stateMutability": "payable",
      "type": "function"
    },
    {
      "constant": false,
      "inputs": [
        {
          "name": "amount",
          "type": "uint256"
        }
      ],
      "name": "sell",
      "outputs": [],
      "payable": false,
      "stateMutability": "nonpayable",
      "type": "function"
    }
  ],
  "bytecode": "0x60806040526003805460ff1916601217905534801561001d57600080fd5b50604051610e00380380610e0083398101604090815281516020808401518385015160008054600160a060020a03191633908117825560035460ff16600a0a86026004819055908252600585529590209490945584018051929490930191849184918491610090916001918501906100b0565b5080516100a49060029060208401906100b0565b5050505050505061014b565b828054600181600116156101000203166002900490600052602060002090601f016020900481019282601f106100f157805160ff191683800117855561011e565b8280016001018555821561011e579182015b8281111561011e578251825591602001919060010190610103565b5061012a92915061012e565b5090565b61014891905b8082111561012a5760008155600101610134565b90565b610ca68061015a6000396000f3006080604052600436106101275763ffffffff7c010000000000000000000000000000000000000000000000000000000060003504166305fefda7811461012c57806306fdde0314610149578063095ea7b3146101d357806318160ddd1461020b57806323b872dd14610232578063313ce5671461025c57806342966c68146102875780634b7503341461029f57806370a08231146102b457806379c65068146102d557806379cc6790146102f95780638620410b1461031d5780638da5cb5b1461033257806395d89b4114610363578063a6f2ae3a14610378578063a9059cbb14610380578063b414d4b6146103a4578063cae9ca51146103c5578063dd62ed3e1461042e578063e4849b3214610455578063e724529c1461046d578063f2fde38b14610493575b600080fd5b34801561013857600080fd5b506101476004356024356104b4565b005b34801561015557600080fd5b5061015e6104d6565b6040805160208082528351818301528351919283929083019185019080838360005b83811015610198578181015183820152602001610180565b50505050905090810190601f1680156101c55780820380516001836020036101000a031916815260200191505b509250505060405180910390f35b3480156101df57600080fd5b506101f7600160a060020a0360043516602435610563565b604080519115158252519081900360200190f35b34801561021757600080fd5b506102206105c9565b60408051918252519081900360200190f35b34801561023e57600080fd5b506101f7600160a060020a03600435811690602435166044356105cf565b34801561026857600080fd5b5061027161063e565b6040805160ff9092168252519081900360200190f35b34801561029357600080fd5b506101f7600435610647565b3480156102ab57600080fd5b506102206106bf565b3480156102c057600080fd5b50610220600160a060020a03600435166106c5565b3480156102e157600080fd5b50610147600160a060020a03600435166024356106d7565b34801561030557600080fd5b506101f7600160a060020a036004351660243561078d565b34801561032957600080fd5b5061022061085e565b34801561033e57600080fd5b50610347610864565b60408051600160a060020a039092168252519081900360200190f35b34801561036f57600080fd5b5061015e610873565b6101476108cb565b34801561038c57600080fd5b506101f7600160a060020a03600435166024356108eb565b3480156103b057600080fd5b506101f7600160a060020a0360043516610901565b3480156103d157600080fd5b50604080516020600460443581810135601f81018490048402850184019095528484526101f7948235600160a060020a03169460248035953695946064949201919081908401838280828437509497506109169650505050505050565b34801561043a57600080fd5b50610220600160a060020a0360043581169060243516610a2f565b34801561046157600080fd5b50610147600435610a4c565b34801561047957600080fd5b50610147600160a060020a03600435166024351515610aa0565b34801561049f57600080fd5b50610147600160a060020a0360043516610b1b565b600054600160a060020a031633146104cb57600080fd5b600791909155600855565b60018054604080516020600284861615610100026000190190941693909304601f8101849004840282018401909252818152929183018282801561055b5780601f106105305761010080835404028352916020019161055b565b820191906000526020600020905b81548152906001019060200180831161053e57829003601f168201915b505050505081565b336000818152600660209081526040808320600160a060020a038716808552908352818420869055815186815291519394909390927fc5c187f53b6bf5e61e032320e996f271e6dc6b212ee64ec28ba8e6b9e3f97a4e928290030190a350600192915050565b60045481565b600160a060020a03831660009081526006602090815260408083203384529091528120548211156105ff57600080fd5b600160a060020a0384166000908152600660209081526040808320338452909152902080548390039055610634848484610b61565b5060019392505050565b60035460ff1681565b3360009081526005602052604081205482111561066357600080fd5b3360008181526005602090815260409182902080548690039055600480548690039055815185815291517f38d762ef507761291a578e921acfe29c1af31a7331ea03e391cf16cfc4d4f5819281900390910190a2506001919050565b60075481565b60056020526000908152604090205481565b600054600160a060020a031633146106ee57600080fd5b600160a060020a03821660009081526005602090815260408083208054850190556004805485019055805184815290513093927f0a85107a334eae0d22d21cdf13af0f8e8125039ec60baaa843d2c4c5b0680174928290030190a3604080518281529051600160a060020a0384169130917f0a85107a334eae0d22d21cdf13af0f8e8125039ec60baaa843d2c4c5b06801749181900360200190a35050565b600160a060020a0382166000908152600560205260408120548211156107b257600080fd5b600160a060020a03831660009081526006602090815260408083203384529091529020548211156107e257600080fd5b600160a060020a0383166000818152600560209081526040808320805487900390556006825280832033845282529182902080548690039055600480548690039055815185815291517f38d762ef507761291a578e921acfe29c1af31a7331ea03e391cf16cfc4d4f5819281900390910190a250600192915050565b60085481565b600054600160a060020a031681565b6002805460408051602060018416156101000260001901909316849004601f8101849004840282018401909252818152929183018282801561055b5780601f106105305761010080835404028352916020019161055b565b6000600854348115156108da57fe5b0490506108e8303383610b61565b50565b60006108f8338484610b61565b50600192915050565b60096020526000908152604090205460ff1681565b6000836109238185610563565b15610a27576040517f8f4ffcb10000000000000000000000000000000000000000000000000000000081523360048201818152602483018790523060448401819052608060648501908152875160848601528751600160a060020a03871695638f4ffcb195948b94938b939192909160a490910190602085019080838360005b838110156109bb5781810151838201526020016109a3565b50505050905090810190601f1680156109e85780820380516001836020036101000a031916815260200191505b5095505050505050600060405180830381600087803b158015610a0a57600080fd5b505af1158015610a1e573d6000803e3d6000fd5b50505050600191505b509392505050565b600660209081526000928352604080842090915290825290205481565b6007543090820281311015610a6057600080fd5b610a6b333084610b61565b6007546040513391840280156108fc02916000818181858888f19350505050158015610a9b573d6000803e3d6000fd5b505050565b600054600160a060020a03163314610ab757600080fd5b600160a060020a038216600081815260096020908152604091829020805460ff191685151590811790915582519384529083015280517f9c7f3ec19b22c1ae3ff800bb9d43bae9a0057567e939f0f16fcab11fa1c437539281900390910190a15050565b600054600160a060020a03163314610b3257600080fd5b6000805473ffffffffffffffffffffffffffffffffffffffff1916600160a060020a0392909216919091179055565b600160a060020a0382161515610b7657600080fd5b600160a060020a038316600090815260056020526040902054811115610b9b57600080fd5b600160a060020a0382166000908152600560205260409020548181011015610bc257600080fd5b600160a060020a03831660009081526009602052604090205460ff1615610be857600080fd5b600160a060020a03821660009081526009602052604090205460ff1615610c0e57600080fd5b600160a060020a03808416600081815260056020908152604080832080548790039055938616808352918490208054860190558351858152935191937f0a85107a334eae0d22d21cdf13af0f8e8125039ec60baaa843d2c4c5b0680174929081900390910190a35050505600a165627a7a723058202ffc8d1ffe860b14ba975a7f9064b1427a4b9fd41816001411a7480ae38317560029",
  "source": "pragma solidity ^0.4.16;\n\ncontract owned {\n    address public owner;\n\n\tconstructor() public {\n        owner = msg.sender;\t\n\t}\n\n\tmodifier onlyOwner {\n\t    require(msg.sender == owner);\n\t\t_;\n\t}\n\n\tfunction transferOwnership(address newOwner) onlyOwner public {\n        owner = newOwner;\t\n\t}\n}\n\ninterface tokenRecipient {\n    function receiveApproval(address _from, uint256 _value, address _token, bytes _extraData) external; \n}\n\ncontract TokenERC20 {\n    string public name;\n\tstring public symbol;\n\tuint8 public decimals = 18;\n\n\tuint256 public totalSupply;\n\n\tmapping (address => uint256) public balanceOf;\n\tmapping (address => mapping (address => uint256)) public allowance;\n\n\tevent LogTransfer(address indexed _from, address indexed _to, uint256 _value);\n\tevent LogApproval(address indexed _owner, address indexed _spender,  uint256 value);\n\tevent LogBurn(address indexed _from, uint256 _value);\n\n\tconstructor(\n\t    uint256 _initialSupply,\n\t\tstring _tokenName,\n\t\tstring _tokenSymbol\n\t) public {\n        totalSupply = _initialSupply * 10 ** uint256(decimals);\t\n\t\tbalanceOf[msg.sender] = totalSupply;\n\t\tname = _tokenName;\n\t\tsymbol = _tokenSymbol;\n\t}\n\n\tfunction _transfer(address _from, address _to, uint _value) internal {\n        require(_to != 0x0);\t\n\t\trequire(balanceOf[_from] >= _value);\n\t\trequire(balanceOf[_to] + _value > balanceOf[_to]);\n\t\tuint previousBalances = balanceOf[_from] + balanceOf[_to];\n\t\tbalanceOf[_from] -= _value;\n\t\tbalanceOf[_to] += _value;\n\t\temit LogTransfer(_from, _to, _value);\n\t\tassert(balanceOf[_from] + balanceOf[_to] == previousBalances);\n\t}\n\n\tfunction transfer(address _to, uint256 _value) public returns (bool) {\n\t    _transfer(msg.sender, _to, _value);\n\t\treturn true;\n\t}\n\n\tfunction transferFrom(address _from, address _to, uint256 _value) public returns (bool) {\n\t    require(_value <= allowance[_from][msg.sender]);\n\t\tallowance[_from][msg.sender] -= _value;\n\t\t_transfer(_from, _to, _value);\n\t\treturn true;\n\t}\n\n\tfunction approve(address _spender, uint256 _value) public returns (bool) {\n\t    allowance[msg.sender][_spender] = _value;\n\t\temit LogApproval(msg.sender, _spender, _value);\n\t\treturn true;\n\t}\n\n\tfunction approveAndCall(address _spender, uint256 _value, bytes _extraData) public returns (bool) {\n\t    tokenRecipient spender = tokenRecipient(_spender);\n\t\tif (approve(_spender, _value)) {\n\t\t    spender.receiveApproval(msg.sender, _value, this, _extraData);\n\t\t\treturn true;\n\t\t}\n\t}\n\n\tfunction burn(uint256 _value) public returns (bool) {\n\t    require(balanceOf[msg.sender] >= _value);\n\t\tbalanceOf[msg.sender] -= _value;\n\t\ttotalSupply -= _value;\n\t\temit LogBurn(msg.sender, _value);\n\t\treturn true;\n\t}\n\n\tfunction burnFrom(address _from, uint256 _value) public returns (bool) {\n\t    require(balanceOf[_from] >= _value);\n\t\trequire(_value <= allowance[_from][msg.sender]);\n\t\tbalanceOf[_from] -= _value;\n\t\tallowance[_from][msg.sender] -= _value;\n\t\ttotalSupply -= _value;\n\t\temit LogBurn(_from, _value);\n\t\treturn true;\n\t}\n}\n\ncontract MyAdvancedToken is owned, TokenERC20 {\n    uint256 public sellPrice;\n\tuint256 public buyPrice;\n\n\tmapping (address => bool) public frozenAccount;\n\t\n\tevent LogFrozenFunds(address target, bool frozen);\n\n\tconstructor(\n\t    uint256 _initialSupply,\n\t\tstring _tokenName,\n\t\tstring _tokenSymbol\n\t) TokenERC20(_initialSupply, _tokenName, _tokenSymbol) public {}\n\n\tfunction _transfer(address _from, address _to, uint _value) internal {\n        require(_to != 0x0);\t\n\t\trequire(balanceOf[_from] >= _value);\n\t\trequire(balanceOf[_to] + _value >= balanceOf[_to]);\n\t\trequire(!frozenAccount[_from]);\n\t\trequire(!frozenAccount[_to]);\n\t\tbalanceOf[_from] -= _value;\n\t\tbalanceOf[_to] += _value;\n\t\temit LogTransfer(_from, _to, _value);\n\t}\n\n\tfunction mintToken(address _target, uint256 _mintedAmount) onlyOwner public {\n        balanceOf[_target] += _mintedAmount;\t\n\t\ttotalSupply += _mintedAmount;\n\t\temit LogTransfer(0, this, _mintedAmount);\n\t\temit LogTransfer(this, _target, _mintedAmount); \n\t}\n\n\tfunction freezeAccount(address _target, bool _freeze) onlyOwner public {\n        frozenAccount[_target] = _freeze;\t\n\t\temit LogFrozenFunds(_target, _freeze);\n\t}\n\n\tfunction setPrices(uint256 _newSellPrice, uint256 _newBuyPrice) onlyOwner public {\n\t    sellPrice = _newSellPrice;\n\t\tbuyPrice = _newBuyPrice;\n\t}\n\n\tfunction buy() payable public {\n        uint amount = msg.value / buyPrice;\t\n\t\t_transfer(this, msg.sender, amount);\n\t}\n\n\tfunction sell(uint256 amount) public {\n\t    address myAddress = this;\n\t\trequire(myAddress.balance >= amount * sellPrice);\n\t\t_transfer(msg.sender, this, amount);\n\t\tmsg.sender.transfer(amount * sellPrice);\n\t}\n}\n",
  "sourcePath": "/Users/knight/Documents/geth/smart-contracts/hello/contracts/erc20_token.sol",
  "compiler": {
    "name": "solc",
    "version": "0.4.24+commit.e67f0147.Emscripten.clang"
  },
  "schemaVersion": "2.0.1",
  "updatedAt": "2018-07-31T08:05:52.629Z"
}