{
  "contractName": "MyFirstContract",
  "abi": [
    {
      "constant": true,
      "inputs": [
        {
          "name": "amount",
          "type": "uint256"
        }
      ],
      "name": "checkValue",
      "outputs": [
        {
          "name": "",
          "type": "bool"
        }
      ],
      "payable": false,
      "stateMutability": "view",
      "type": "function"
    },
    {
      "constant": false,
      "inputs": [
        {
          "name": "amount",
          "type": "uint256"
        }
      ],
      "name": "withdraw",
      "outputs": [],
      "payable": false,
      "stateMutability": "nonpayable",
      "type": "function"
    },
    {
      "constant": true,
      "inputs": [],
      "name": "balance",
      "outputs": [
        {
          "name": "",
          "type": "uint256"
        }
      ],
      "payable": false,
      "stateMutability": "view",
      "type": "function"
    },
    {
      "constant": false,
      "inputs": [
        {
          "name": "amount",
          "type": "uint256"
        }
      ],
      "name": "deposit",
      "outputs": [],
      "payable": false,
      "stateMutability": "nonpayable",
      "type": "function"
    },
    {
      "constant": true,
      "inputs": [],
      "name": "loan",
      "outputs": [
        {
          "name": "",
          "type": "bool"
        }
      ],
      "payable": false,
      "stateMutability": "view",
      "type": "function"
    },
    {
      "constant": false,
      "inputs": [
        {
          "name": "_name",
          "type": "string"
        }
      ],
      "name": "setName",
      "outputs": [],
      "payable": false,
      "stateMutability": "nonpayable",
      "type": "function"
    },
    {
      "constant": true,
      "inputs": [],
      "name": "getName",
      "outputs": [
        {
          "name": "",
          "type": "string"
        }
      ],
      "payable": false,
      "stateMutability": "view",
      "type": "function"
    },
    {
      "constant": false,
      "inputs": [
        {
          "name": "_age",
          "type": "uint256"
        }
      ],
      "name": "setAge",
      "outputs": [],
      "payable": false,
      "stateMutability": "nonpayable",
      "type": "function"
    },
    {
      "constant": true,
      "inputs": [
        {
          "name": "",
          "type": "uint256"
        }
      ],
      "name": "getAge",
      "outputs": [
        {
          "name": "",
          "type": "uint256"
        }
      ],
      "payable": false,
      "stateMutability": "view",
      "type": "function"
    },
    {
      "constant": true,
      "inputs": [],
      "name": "getAge",
      "outputs": [
        {
          "name": "",
          "type": "uint256"
        }
      ],
      "payable": false,
      "stateMutability": "view",
      "type": "function"
    },
    {
      "constant": true,
      "inputs": [
        {
          "name": "",
          "type": "string"
        }
      ],
      "name": "getAge",
      "outputs": [
        {
          "name": "",
          "type": "uint256"
        }
      ],
      "payable": false,
      "stateMutability": "view",
      "type": "function"
    }
  ],
  "bytecode": "0x6080604052600a60005561048d806100186000396000f3006080604052600436106100ae5763ffffffff7c01000000000000000000000000000000000000000000000000000000006000350416630e37008a81146100b357806317d7de7c146100dd57806318db62fb146101675780632e1a7d4d14610193578063967e6e65146101ad578063b69ef8a8146101c2578063b6b55f25146101d7578063c47f0027146101ef578063d285b7b414610248578063d5dcf1271461025d578063d83880f014610275575b600080fd5b3480156100bf57600080fd5b506100cb6004356102ce565b60408051918252519081900360200190f35b3480156100e957600080fd5b506100f26102d5565b6040805160208082528351818301528351919283929083019185019080838360005b8381101561012c578181015183820152602001610114565b50505050905090810190601f1680156101595780820380516001836020036101000a031916815260200191505b509250505060405180910390f35b34801561017357600080fd5b5061017f60043561036b565b604080519115158252519081900360200190f35b34801561019f57600080fd5b506101ab600435610373565b005b3480156101b957600080fd5b506100cb61038e565b3480156101ce57600080fd5b506100cb610394565b3480156101e357600080fd5b506101ab60043561039a565b3480156101fb57600080fd5b506040805160206004803580820135601f81018490048402850184019095528484526101ab9436949293602493928401919081908401838280828437509497506103a59650505050505050565b34801561025457600080fd5b5061017f6103bc565b34801561026957600080fd5b506101ab6004356103c4565b34801561028157600080fd5b506040805160206004803580820135601f81018490048402850184019095528484526100cb9436949293602493928401919081908401838280828437509497506102ce9650505050505050565b5060025490565b60018054604080516020601f600260001961010087891615020190951694909404938401819004810282018101909252828152606093909290918301828280156103605780601f1061033557610100808354040283529160200191610360565b820191906000526020600020905b81548152906001019060200180831161034357829003601f168201915b505050505090505b90565b600054101590565b61037c8161036b565b1561038b576000805482900390555b50565b60025490565b60005490565b600080549091019055565b80516103b89060019060208401906103c9565b5050565b600080541190565b600255565b828054600181600116156101000203166002900490600052602060002090601f016020900481019282601f1061040a57805160ff1916838001178555610437565b82800160010185558215610437579182015b8281111561043757825182559160200191906001019061041c565b50610443929150610447565b5090565b61036891905b80821115610443576000815560010161044d5600a165627a7a7230582080fc35a4c566c688ae76c4bc165aa4949c9e28ef6ec1a28ce78073977e92aa770029",
  "source": "pragma solidity 0.4.24;\n\ninterface Regulator {\n\t//接口方法只能声明为external权限\n    function checkValue(uint) external returns (bool);\n\tfunction loan() external view returns (bool);\n}\n\ncontract Bank is Regulator {\n    uint private value;\n\n\tconstructor(uint amount) public {\n\t    value = amount;\n\t}\n\n\tfunction deposit(uint amount) public {\n\t    value += amount;\n\t}\n\n\tfunction withdraw(uint amount) public {\n\t    if (checkValue(amount)) {\n\t\t    value -= amount;\n\t\t}\n\t}\n\n\tfunction balance() public view returns (uint) {\n\t    return value;\n\t}\n\n\tfunction checkValue(uint amount) public view returns (bool) {\n\t    return value >= amount;\n\t}\n\n\t//实现接口时，方法必须为public、external权限,不能为internal、private权限\n\tfunction loan() public view returns (bool) {\n\t    return value > 0;\n\t}\n}\n\ncontract MyFirstContract is Bank(10) {\n    string private name;\n\tuint private age;\n\tuint[] private x;\n\tstruct Person {\n\t    string name;\n\t\tuint age;\n\t}\n\tmapping(uint => string) employ;\n\n\tfunction setName(string _name) public {\n\t    name = _name;\n\t}\n\n\tfunction getName() public view returns (string) {\n        return name;\t\n\t}\n\n\tfunction setAge(uint _age) public {\n\t    age = _age;\n\t}\n\n\tfunction getAge() public view returns (uint) {\n\t    return age;\n\t}\n    \n\t//支持方法重载\n\tfunction getAge(string) public view returns (uint) {\n\t    return age;\n\t}\n\n\t//支持省略无用的参数名,只声明参数类型，但参数一样会入栈\n\tfunction getAge(uint) public view returns (uint) {\n\t    return age;\n\t}\n\n\n\n\n}\n",
  "sourcePath": "/Users/knight/Documents/geth/smart-contracts/hello/contracts/inherit.sol",
  "compiler": {
    "name": "solc",
    "version": "0.4.24+commit.e67f0147.Emscripten.clang"
  },
  "schemaVersion": "2.0.1",
  "updatedAt": "2018-07-26T14:30:08.644Z"
}