{
  "contractName": "Transaction",
  "abi": [
    {
      "inputs": [
        {
          "name": "HelloAddress",
          "type": "address"
        }
      ],
      "payable": false,
      "stateMutability": "nonpayable",
      "type": "constructor"
    },
    {
      "payable": true,
      "stateMutability": "payable",
      "type": "fallback"
    },
    {
      "anonymous": false,
      "inputs": [
        {
          "indexed": false,
          "name": "sender",
          "type": "address"
        }
      ],
      "name": "SenderLogger",
      "type": "event"
    },
    {
      "anonymous": false,
      "inputs": [
        {
          "indexed": false,
          "name": "value",
          "type": "uint256"
        }
      ],
      "name": "ValueLogger",
      "type": "event"
    },
    {
      "anonymous": false,
      "inputs": [
        {
          "indexed": false,
          "name": "balance",
          "type": "uint256"
        }
      ],
      "name": "BalanceLogger",
      "type": "event"
    },
    {
      "anonymous": false,
      "inputs": [
        {
          "indexed": false,
          "name": "helloValue",
          "type": "uint256"
        }
      ],
      "name": "HelloValueLogger",
      "type": "event"
    },
    {
      "anonymous": false,
      "inputs": [
        {
          "indexed": false,
          "name": "sender",
          "type": "address"
        }
      ],
      "name": "HelloSenderLogger",
      "type": "event"
    },
    {
      "constant": false,
      "inputs": [
        {
          "name": "_value",
          "type": "uint256"
        }
      ],
      "name": "setValueToHelloContract",
      "outputs": [],
      "payable": true,
      "stateMutability": "payable",
      "type": "function"
    },
    {
      "constant": false,
      "inputs": [],
      "name": "getValueFromHelloContract",
      "outputs": [
        {
          "name": "",
          "type": "uint256"
        }
      ],
      "payable": false,
      "stateMutability": "nonpayable",
      "type": "function"
    },
    {
      "constant": false,
      "inputs": [],
      "name": "getSenderFromHelloContract",
      "outputs": [
        {
          "name": "",
          "type": "address"
        }
      ],
      "payable": false,
      "stateMutability": "nonpayable",
      "type": "function"
    },
    {
      "constant": false,
      "inputs": [],
      "name": "getValueFromHelloContractWithoutABI",
      "outputs": [
        {
          "name": "",
          "type": "uint256"
        }
      ],
      "payable": false,
      "stateMutability": "nonpayable",
      "type": "function"
    },
    {
      "constant": false,
      "inputs": [],
      "name": "sendEtherToHelloContract",
      "outputs": [],
      "payable": false,
      "stateMutability": "nonpayable",
      "type": "function"
    }
  ],
  "bytecode": "0x608060405234801561001057600080fd5b5060405160208061057e833981016040525160018054600160a060020a0319908116331790915560008054600160a060020a039093169290911691909117905561051f8061005f6000396000f3006080604052600436106100535763ffffffff60e060020a6000350416631e063d5681146100b25780634953a0b5146100d9578063bfdd206f1461010a578063cc51e1db14610117578063d0c3d8831461012c575b600154600160a060020a0316331461006a57600080fd5b670de0b6b3a764000034101561007c57fe5b604080513031815290517f4044048a4096f0821fed56f6d93818d6d05074ba7317b1895ba4522f4671f1599181900360200190a1005b3480156100be57600080fd5b506100c7610141565b60408051918252519081900360200190f35b3480156100e557600080fd5b506100ee610208565b60408051600160a060020a039092168252519081900360200190f35b6101156004356102d8565b005b34801561012357600080fd5b50610115610389565b34801561013857600080fd5b506100c761045e565b60008054604080517fbb6d8ffd00000000000000000000000000000000000000000000000000000000815290518392600160a060020a03169163bb6d8ffd91600480830192602092919082900301818787803b1580156101a057600080fd5b505af11580156101b4573d6000803e3d6000fd5b505050506040513d60208110156101ca57600080fd5b50516040805182815290519192507fee7c1017dbc3c75c22c1696ddb8e29d3c29d6e44c84797e93e86190e72309348919081900360200190a1919050565b60008054604080517fdedf209b00000000000000000000000000000000000000000000000000000000815290518392600160a060020a03169163dedf209b91600480830192602092919082900301818787803b15801561026757600080fd5b505af115801561027b573d6000803e3d6000fd5b505050506040513d602081101561029157600080fd5b505160408051600160a060020a038316815290519192507f48bc076a49b9cc44432080b9be41b7d16007b9da54dd4e290694de56befe58bc919081900360200190a1919050565b60008054604080517fa2817c22000000000000000000000000000000000000000000000000000000008152600481018590529051600160a060020a039092169263a2817c229260248084019382900301818387803b15801561033957600080fd5b505af115801561034d573d6000803e3d6000fd5b5050604080513031815290517f4044048a4096f0821fed56f6d93818d6d05074ba7317b1895ba4522f4671f1599350908190036020019150a150565b60008054604051600160a060020a0390911691906305f5e1009082818181858883f193505050501580156103c1573d6000803e3d6000fd5b5060008054604051600160a060020a039091169190630bebc2009082818181858883f1935050505015156103f457600080fd5b60008054604051600160a060020a0390911691611770916311e1a30091818181858888f19350505050151561042857600080fd5b604080513031815290517f4044048a4096f0821fed56f6d93818d6d05074ba7317b1895ba4522f4671f1599181900360200190a1565b60008060009054906101000a9004600160a060020a0316600160a060020a031660405180807f74323300000000000000000000000000000000000000000000000000000000008152506003019050604051809103902060e060020a90046040518163ffffffff1660e060020a0281526004016000604051808303816000875af19250505015156104ed57600080fd5b506001905600a165627a7a72305820af2364b4334b15eb7a7995447faca26b84e8c673d49ceacb72ce8abbcb1e50d90029",
  "source": "pragma solidity ^0.4.24;\n/**\n * library\n * - 不允许定义payable函数\n * - 不允许定义fallback函数\n */\n\n/**\n * 接口\n * - 不能继承合约或接口\n * - 不能定义析构函数\n * - 不能定义状态变量\n * - 不能定义结构体\n * - 不能定义枚举类型\n * - 接口中的函数定义为external\n */\ninterface Token {\n    function transfer(address recipient, uint amount) external;\n}\n\n/**\n * 抽象合约\n * - 定义：合约内有未实现的方法(即没有函数体的函数)\n * - 抽象合约无法编译\n * - 合约中只要有一个函数没实现就当作是抽象合约\n * - 抽象合约可以包含已实现的函数\n * - 抽象合约可以被继承\n * - 如果一个合约继承了抽象合约而并没有实现所有抽象函数，\n *   则派生出的合约也属于抽象合约\n */\ncontract ContractName {\n    function funName() public returns (bytes32); \n\tfunction funName2() external returns (bytes32);\n}\n\n\n/**\n * 声明要调用的外部合约函数\n * - 函数体为空\n * - 函数可见性可以为public、external。\n *   可以不与外部合约函数的可见性一致\n * - 在本合约中声明外部合约的函数只是为了生成ABI\n *   通过ABI调用外部合约是比较合适的调用方式，当然\n *   如果不想通过ABI也是可以调用外部合约的，比如通过call的方式\n */\ncontract Hello {\n    function t21(uint) external pure {}\n\tfunction t22() public pure returns (uint) {} \n\tfunction t23() public pure returns (address) {}\n}\n\ncontract Transaction {\n\tHello private hello;\n\n    event SenderLogger(address sender);\n\tevent ValueLogger(uint value);\n\tevent BalanceLogger(uint balance);\n\tevent HelloValueLogger(uint helloValue);\n\tevent HelloSenderLogger(address sender);\n\n\taddress private owner;\n\n\tmodifier isOwner {\n\t    require(owner == msg.sender);\n\t\t_;\n\t}\n\n\tmodifier validValue {\n\t    assert(msg.value >= 1 ether);\n\t\t_;\n\t}\n\n\tconstructor(address HelloAddress) public {\n\t    owner = msg.sender;\n\t\thello = Hello(HelloAddress);\n        //Token token = Token(msg.sender);\n\t\t//token.transfer(msg.sender, 100000000);\n\t}\n\n\t/**\n\t * 调用外部合约的函数并传递参数过去\n\t * - 此种调用方式遵循了ABI规范，是比较正规安全的调用方式\n\t * - 给普通函数加上payable关键字表明此函数具有接收代币的功能\n\t */\n\tfunction setValueToHelloContract(uint _value) external payable {\n\t\thello.t21(_value);\n\t\temit BalanceLogger(address(this).balance);\n\t}\n\n\t/**\n\t * 调用外部合约的函数获取返回值\n\t *\n\t * - 通过Web3的call方法调用此函数，不会调用外部合约，也不会触发事件\n\t *   只是从本地读取数据并返回\n\t * - Web3的call方法不能改变数据，亦不会消耗gas, 不会对网络广播\n\t */\n\tfunction getValueFromHelloContract() public returns (uint) {\n\t    uint value = hello.t22();\n\t\temit HelloValueLogger(value);\n\t\treturn value;\n\t}\n\n\t/**\n\t * 测试调用外部合约返回的msg.sender是合约地址还是用户地址\n\t */\n\tfunction getSenderFromHelloContract() public returns (address) {\n        address sender = hello.t23(); //实验证明，返回的是本合约地址\t\n\t\temit HelloSenderLogger(sender);\n\t\treturn sender;\n\t}\n\n\t/**\n\t * 不通过ABI规范的方式调用外部合约\n\t * - 无法取得被调用合约的返回值(除非用汇编指令)\n\t */\n\tfunction getValueFromHelloContractWithoutABI() public returns (uint) {\n\t\t//这行演示调用外部合约中一个不存在的函数也会返回成功\n        //if(address(hello).call(bytes4(keccak256(\"t203()\"))))\n\t\t//    emit SenderLogger(msg.sender);\n\n\t\t//call()、send()、delegatecall()、callcode()\n\t\t//函数在失败时不会抛出异常，而是会返回false\n\t\tif(!address(hello).call(bytes4(keccak256(\"t23\"))))\n\t\t\trevert();\n\n\t\treturn 1;\n\t}\n\n\t/**\n\t * 给其它合约转帐\n\t *\n\t * 参考资料:\n     *   https://ethereum.stackexchange.com/questions/38387/contract-address-transfer-method-gas-cost\n\t */\n\tfunction sendEtherToHelloContract() public {\n        //如果异常会回滚，会导致当前合约抛出异常并停止往下执行. 不能设置gas(默认2300)\t\n        address(hello).transfer(100000000); \n        \n\t\t//如果失败会返回false，不回滚, 不会导致本合约异常终止.不能设置gas（默认2300）\n\t\trequire(address(hello).send(200000000)); \n\n\t\t//这种方式具有被调用合约反调用的风险。可以设置gas\n\t\tif(!address(hello).call.value(300000000).gas(6000)())\n\t\t   revert();\t\n\n\t\temit BalanceLogger(address(this).balance);\n\t}\n    \n\t/**\n\t * 匿名函数\n\t *\n\t * - 当调用一个不存在的函数时会触发此匿名函数\n\t * - 如果想让此函数具有接收ether的功能，必须加payable关键字\n\t * - 一个合约只允许声明一个匿名函数\n\t * - 匿名函数不能有任何参数\n\t * - 匿名函数不能返回任何值\n     * - 只要gas足够多，匿名函数也可以做复杂的运算\n\t * - 可见性必须为external？官方文档描述得有问题,实验证明public也可以\n\t * - 虽然匿名函数不允许有参数，但还是可以通过msg.data来获取调用时\n\t *   传递过来的参数值\n\t */\n\tfunction () external payable isOwner validValue {\n        //emit SenderLogger(msg.sender); //发送者地址\t\n\t\t//emit ValueLogger(msg.value);   //数字货币数量 (单位: wei)\n\t\temit BalanceLogger(address(this).balance); //当前合约帐户余额(单位: wei)\n\t}\n}\n",
  "sourcePath": "/Users/knight/Documents/geth/smart-contracts/hello/contracts/c1/c1.sol",
  "compiler": {
    "name": "solc",
    "version": "0.4.24+commit.e67f0147.Emscripten.clang"
  },
  "schemaVersion": "2.0.1",
  "updatedAt": "2018-08-02T06:47:47.488Z"
}